:020000040800F2
:1000000048050020290200085D0600085506000882
:1000100059060008DD020008ED0600080000000097
:100020000000000000000000000000006106000861
:10003000E1020008000000005F06000863060008F7
:100040004902000849020008490200084902000864
:100050004902000849020008490200084902000854
:100060004902000849020008490200084902000844
:100070004902000849020008490200084902000834
:100080004902000849020008490200084902000824
:100090004902000849020008490200084902000814
:1000A0004902000849020008490200084902000804
:1000B00049020008490200084902000849020008F4
:1000C00049020008490200084902000849020008E4
:1000D000490200086D0600084902000849020008AC
:1000E00049020008490200084902000849020008C4
:1000F00049020008490200084902000849020008B4
:1001000049020008490200084902000849020008A3
:100110004902000849020008490200084902000893
:100120004902000849020008490200084902000883
:100130004902000849020008490200084902000873
:100140004902000849020008490200084902000863
:100150004902000849020008490200084902000853
:100160004902000849020008490200084902000843
:100170004902000849020008490200080000000086
:10018000490200084902000800F002F800F03CF8BB
:100190000AA090E8000C82448344AAF10107DA45E2
:1001A00001D100F031F8AFF2090EBAE80F0013F0F8
:1001B000010F18BFFB1A43F0010318476C0B000036
:1001C0008C0B0000103A24BF78C878C1FAD85207C7
:1001D00024BF30C830C144BF04680C6070470000C1
:1001E0000023002400250026103A28BF78C1FBD840
:1001F000520728BF30C148BF0B6070471FB500F0E1
:100200008DFD1FBD10B510BD00F035F81146FFF78C
:10021000F5FF00F0FFFA00F053F803B4FFF7F2FF28
:1002200003BC00F081FA00000B48016841F4700142
:1002300001600A480047FEE7FEE7FEE7FEE7FEE74B
:10024000FEE7FEE7FEE7FEE7FEE70000044805499B
:10025000034A054B7047000088ED00E08901000863
:1002600048010020480500204801002070477047E1
:10027000704770477047754600F02CF8AE46050091
:100280006946534620F00700854618B020B5FFF7B1
:10029000DDFFBDE820404FF000064FF000074FF0B3
:1002A00000084FF0000B21F00701AC46ACE8C00994
:1002B000ACE8C009ACE8C009ACE8C0098D4670479D
:1002C00010B50446AFF300802046BDE81040FFF7AC
:1002D000A4BF000000487047E400002000BFFEE714
:1002E00070470000F8B502460B46002500240020A8
:1002F0000021D6E0012606FA01F51E6806EA05048B
:10030000AC4274D11E7906F00306012E04D01E798A
:1003100006F00306022E13D190684F000326BE405C
:10032000B0434F00DE68BE40304390605068012605
:100330008E40B0431E79C6F300168E4030435060A5
:100340001E7906F00306032E09D0D0684F0003265D
:10035000BE40B0434F009E68BE403043D0601E791F
:1003600006F00306022E13D1CF0802F1200656F83C
:1003700027004E07F70E0F26BE40B0434F07FF0E73
:100380001E69BE403043CF0802F1200646F8270020
:1003900010684F000326BE40B0431E7906F00306E6
:1003A0004F00BE40304310605E6806F44036002EB9
:1003B00076D000BF002600963C4E366846F4804654
:1003C0003A4F3E603E46366806F48046009600BFCF
:1003D00000BF374E8F0856F827008E07370F0F26BD
:1003E000BE40B043334EB24202D1002624E057E073
:1003F000314EB24201D101261EE0304EB24201D14F
:10040000022619E02E4EB24201D1032614E02D4EF1
:10041000B24201D104260FE02B4EB24201D1052693
:100420000AE02A4EB24201D1062605E0284EB24229
:1004300001D1072600E008268F073F0FBE4030435A
:100440001B4E8F0846F82700224E3068A0435E6896
:1004500006F4801606B120431E4E3060361D30680B
:10046000A0435E6806F4001606B12043194E361DFF
:100470003060184E361F3068A0435E6806F40036C0
:1004800006B12043134E361F3060361F3068A0433C
:100490005E6806F4803606B120430E4E083E30609A
:1004A000491C1029FFF426AFF8BD00004438024073
:1004B00008380140000002400004024000080240E9
:1004C000000C0240001002400014024000180240DC
:1004D000001C0240083C01400AB1816101E00B04AC
:1004E000836170470348006803490978084401495B
:1004F00008607047100000201800002010B50A485E
:10050000006840F40070084908600846006840F43C
:1005100080600860032000F06FF80F2000F006F8FC
:1005200000F02AF8002010BD003C024070B50446DF
:100530000E4800784FF47A71B1FBF0F00C4909686D
:10054000B1FBF0F5284600F06BF808B1012070BD52
:10055000102C07D200222146501E00F00EF805484C
:10056000046001E00120F2E70020F0E7180000201D
:10057000000000201400002070472DE9F05F804645
:100580000D461646002700F0B3F8074639462A46BE
:10059000334601F00700C0F1070ABAF1040F02D98F
:1005A0004FF0040A01E0C0F1070AD14600F1040A45
:1005B000BAF1070F02D24FF0000A01E0A0F1030ADE
:1005C000D4464FF0010A0AFA09FAAAF1010A0AEA26
:1005D000020A0AFA0CFA4FF0010B0BFA0CFBABF112
:1005E000010B0BEA030B4AEA0B042146404600F0DC
:1005F00087F8BDE8F09F000000BF00F00702064B3F
:1006000019684FF6FF031940044B0B4343EA0221DC
:10061000014B196000BF70470CED00E00000FA05C7
:1006200070B504462546681EB0F1807F01D30120D5
:100630000FE0681E4FF0E02148610F214FF0FF30BE
:1006400000F05EF800204FF0E0218861072008618B
:10065000002070BD00BFFEE700BFFEE77047704797
:10066000704710B5FFF73EFF10BD00001C49096838
:1006700001F0200109B31A494968C8B2194909882B
:1006800001F40041C9B91749098801F4804161B1F9
:100690000A2803D00021134A118020E0114909885B
:1006A00041F400410F4A118019E00D2806D10D498F
:1006B000098841F480410B4A118010E009490988FA
:1006C000C1F30D01084A505406490988491C054ADE
:1006D000118011460988C72901DD0021118070476A
:1006E000001001400C0000201C00002000BFFEE7AD
:1006F00002480068C0F30220704700000CED00E0E3
:1007000010B5002804DB0A07130E054A135406E04F
:100710000A07140E034A00F00F031B1FD45410BD28
:1007200000E400E018ED00E000BF70474FF0E0216A
:10073000096941F004014FF0E022116105490860A8
:100740001146096941F0010111616FF07041516179
:10075000704700000400002010B504464FF47A7181
:1007600004FB01F000F002F810BD000070B5034674
:1007700000224FF0E02675690D4E366803FB06F443
:100780004FF0E026B16910E04FF0E026B0698842F2
:100790000BD0884202D20E1A324402E02E1A0E44C6
:1007A00032440146A24200D300E0EDE700BF70BD35
:1007B0000400002000B587B000BF00BF00200190FA
:1007C0001248006840F020001049086008460068A0
:1007D00000F02000019000BF00BF00BF4FF4C060D8
:1007E0000290012003900020059002A90848FFF71D
:1007F00079FD012251020648FFF76EFE01229102A7
:100800000348FFF769FE07B000BD00003038024022
:1008100000140240FFF772FE042302221946A820AA
:1008200000F0ECF94FF4E131542000F007FAFFF743
:10083000C1FFA820FFF77AFF1BE000224FF40071F0
:100840000C48FFF749FE012291020A48FFF744FED7
:10085000C820FFF781FF012251020648FFF73CFE46
:1008600000224FF480610348FFF736FEC820FFF7EF
:1008700073FFE2E700140240F0B504460D46002184
:10088000002000265C4F3F6847F48037DFF868C1DE
:10089000CCF8007000E0491C574F3F6807F4003760
:1008A0001FB947F6FF77B942F5D347F6FF77B9424C
:1008B00001D101209EE0504F40373F6847F08057FC
:1008C000DFF834C10CF1400CCCF800704B4F3F689E
:1008D00047F44047DFF824C1CCF80070464F3F1D75
:1008E0003F6805F03F0C47EA0C07DFF80CC10CF13C
:1008F000040CCCF8007067463F6847EA8417CCF8D0
:10090000007067463F684FF0010CCCEB520C47EA91
:100910000C47DFF8E4C00CF1040CCCF8007067461B
:100920003F6847EA0367CCF8007067463F6847F4C2
:100930008007CCF800700CF104073F680CF1040C40
:10094000CCF8007067463F6847F4A057CCF80070B9
:1009500067463F6847F40047CCF80070264F3F6871
:1009600047F08077DFF890C0CCF80070002105E0F8
:10097000491CB1F5001F01D3022005E01E4F3F685E
:1009800007F00077002FF3D000BF1D4F3F6847F4FA
:100990008077DFF86CC0CCF8007067463F6847F49A
:1009A0000077CCF8007067463F6847F48067CCF862
:1009B000007067463F6847F00507CCF800700E4F9F
:1009C00008373F6847F00207DFF82CC00CF1080C2D
:1009D000CCF8007000210AE0074F08373F68C7F3E2
:1009E0008106491CB1F5001F01D3042001E0032E4C
:1009F000F2D100BFF0BD000000380240007000409E
:100A0000003C0240F0B5034600200024002500BF52
:100A100029E0012606FA00F401EA0405A54221D1E5
:100A2000C70803F1200656F8276047074FEAD76C3E
:100A30000F2707FA0CF7BE434FEAD00C03F120074B
:100A400047F82C60C70803F1200656F827604707CF
:100A5000FF0E02FA07F73E434FEAD00C03F12007DE
:100A600047F82C60401C1028D3D3F0BD2DE9F04787
:100A70000C46DDE90867002100258C4600BF60E0D8
:100A80004FF0010808FA01F504EA050CAC4557D10E
:100A9000D0F800804FEA410A4FF0030909FA0AF939
:100AA00028EA0908C0F80080D0F800804FEA410920
:100AB00002FA09F948EA0908C0F80080012A01D0C1
:100AC000022A27D1D0F808804FEA410A4FF00309E3
:100AD00009FA0AF928EA0908C0F80880D0F808805D
:100AE0004FEA410906FA09F948EA0908C0F80880FE
:100AF000D0F804904FF0010808FA01F829EA080933
:100B0000C0F80490D0F8048003FA01F948EA090813
:100B1000C0F80480D0F80C804FEA410A4FF0030976
:100B200009FA0AF928EA0908C0F80C80D0F80C8004
:100B30004FEA410907FA09F948EA0908C0F80C80A8
:100B4000491C10299CD3BDE8F08700002DE9F04135
:100B50000746884614461D46284600F033F8C5F17E
:100B6000040007FA00F60F20284100EA08000643B7
:100B700006F00F06E21704EBD2625211920002F166
:100B8000E022D2F800212146E31704EBD3635B1186
:100B9000A4EB431C012303FA0CF31A432046E3178A
:100BA00004EBD3635B119B0003F1E023C3F8002146
:100BB0000348005D40EA061001490855BDE8F08190
:100BC00000E400E00146072323EA01021202054B7C
:100BD00018684FF6FF031840034B18431043014BAE
:100BE000186070470CED00E00000FA054A0A520256
:100BF0000243014B1A60704708ED00E0F0B504466F
:100C00000D4616461F4601200B49086000200A4980
:100C100008310860091F086007490C3108603B462D
:100C2000324629462046FFF727FE00214FF000609C
:100C3000FFF7DCFFF0BD0000003802407CB506463F
:100C40000C4600BF3148006840F001002F490860A1
:100C500000BF00BF0846006840F00100086000BF08
:100C600000BF2A481430006840F0100027491431B2
:100C7000086000BF01200090002302224102019081
:100C80002348FFF7F3FE0120009000230222810297
:100C900001901F48FFF7EAFE07224FF400711C483D
:100CA000FFF7B0FE07224FF480611948FFF7AAFE54
:100CB0001848704300EB5400B0FBF4F5164885600B
:100CC00000201549C8600846C068C8600846C0686A
:100CD000C8600846C06840F00800C8600846C068A0
:100CE00040F00400C8600846C06840F02000C860BA
:100CF0000223252203210846FFF728FF0648C06883
:100D000040F400500449C8607CBD00003038024007
:100D10000000024040420F00001001404FF04070C0
:100D2000E1EE100A70470000480D000800000020A6
:100D30001C000000C4010008640D00081C00002015
:100D40002C050000E00100080024F4000000000071
:100D50000000000000000000000000001000000083
:040D6000010000008E
:040000050800018965
:00000001FF
